:020000040000FA
:1000000008040020B9000000B5000000B5000000A1
:1000100000000000000000000000000000000000E0
:10002000000000000000000000000000B50000001B
:100030000000000000000000B5000000DF03000029
:10004000B5000000B5000000B5000000B5000000DC
:10005000B5000000B5000000B5000000B5000000CC
:10006000B5000000B5000000B5000000B5000000BC
:10007000B5000000B5000000B5000000B5000000AC
:10008000B5000000B5000000B5000000B50000009C
:10009000B50000000000000000000000B5000000F6
:1000A000B5000000B5000000B5000000B50000007C
:1000B0000000000000E0000000BF00BF00BF00BF64
:1000C00000BF6E490A686E4FBA430A606D490A6AFA
:1000D0006D4F3A400A62CA681209FCD34A696B4FF5
:1000E000BA436B4F3A434A61CA689208FCD38A69A3
:1000F000664FBA43664F3A438A61CA68D208FCD356
:100100006449654A8A604A78120AFCD2634A4A60A6
:100110004A78120AFCD25F49614A8A604A78120A18
:10012000FCD2604A4A604A78120AFCD25E495F4AB1
:100130004A6054494A6A5D4F3A43544FBA434A624F
:10014000CA685209FCD35A4A8A625A4ACA624A6A3F
:10015000594F3A434A624F49584A4A804A78120AEC
:10016000FCD24C49564A8A604A78120AFCD2494964
:10017000544A8A604A78120AFCD2534A8A804A78E2
:10018000120AFCD2514A0A714A68514F3A434A60F6
:100190004A78120AFCD23F494E4A8A604A78120ACB
:1001A000FCD24D4A8A804A78120AFCD2494A0A7126
:1001B0004A684A4F3A434A604A78120AFCD2484990
:1001C0004A78444F3A434A700A6A464F3A430A62B1
:1001D0003049454A4A804A78120AFCD2434A4A804A
:1001E0004A78120AFCD24249424A8A60424A8A62EA
:1001F0004249434A4A700A782C4F3A430A70CA79F6
:10020000120AFCD23F49404A4A600A683F4F3A43CB
:100210000A6000F09DF800F0C5F818490A681E4F02
:100220003A430A6015490A68520806D313490A6816
:10023000194FBA430A6000F0BFF810490A68D208A3
:1002400015D30E490A68374F3A430A600B490A68CA
:10025000920801D300F072F83449CA7B120906D320
:1002600006490A682F4FBA430A6029498F46034955
:100270000A681209D6D230BFD4E7D3E700000020C5
:10028000FFFFFFFF00080040FF00FFFF80000000AD
:100290004E050000000C00400100000001050100B7
:1002A00000000000000701000040004102000000C3
:1002B00000760000B90502040C04000000410000B3
:1002C000020800000308000003040000030000000F
:1002D00000001900040000000406000000000100F6
:1002E00000040040002000001C4400000342000005
:1002F0000044004110000000100040C00010004009
:10030000BB00000010E000E0FFFF3F00070000001E
:100310009903000000000000000000000000000041
:10032000000000000800000000000000003400424F
:1003300000000000000000000000000000B531498E
:10034000314A0A6031490A68314FBA430A6000BD38
:1003500030490A68304F3A430A60304A4A71CA7BD2
:10036000120AFCD20A782A4F3A430A70CA7B120A50
:10037000FCD2704700B527490A83CA7B120AFCD217
:10038000274A4A71CA7B120AFCD220490A68234FC5
:100390003A430A6024498F461C490A681F4FBA43F2
:1003A0000A6000BD00B500F001F800BD2049214AF7
:1003B0008A60214A8A62704706B520481C491D4A56
:1003C000CA611F4AFFF7D6FF1E4FB84204D10F493A
:1003D0000A680F4F3A430A600138EFD106BD86B56F
:1003E0000A490A681A4F3A430A601A491A4A8A6047
:1003F000CA79120AFCD219490A68194F3A42FFE732
:1004000086BD00001C4400411000000000000020D8
:10041000020000000034004220130000040000002D
:100420004000000000000000250200000000000065
:1004300000440041008000000080404008000000AF
:10044000A007000005000000000000000000000000
:100450000100000000100040A500000010E000E0D6
:08046000000001000000000093
:04000005000000B93E
:00000001FF
